:08000000803102288731FD2F39
:1004C60082317F2224009614080082317F22240084
:1004D6001614080082317F222400161508002D30DC
:1004E60021009D00C0309E000800F00082317F226E
:1004F6007008240091000800240016081F39031D07
:100506007F2A141D08007F2A21000D160D1728309A
:1005160024009500960109309200C030940008002E
:10052600F2007235F1007108F3007008F1007108ED
:10053600F30782317F2273082400910008002D30D2
:1005460021009D000630F2003030890BA82AF20BFC
:10055600A82A003221009D149D18AF2A1C08F1001C
:100566001B08F0000800F10082317F22823124004E
:10057600961582317F22823124001108F00070081E
:10058600F20082317F22823171080319CD2A2400BC
:100596009612CF2A24009616161672080800FD0138
:1005A600F91FDC2AF809F909F80A0319F90AFD0105
:1005B600FD0A7808F0007908F100F2018E30FB00A0
:1005C6007B08F3007D08FC007C08F4008431B2242B
:1005D6007008F8007108F9007208FA000800780837
:1005E60079040319192BFD01FD0AF91B042B0130AF
:1005F600F835F90D890BFB2A0130FC007C08FD0754
:10060600F82A79087B02031D0A2B78087A02031C54
:10061600102B7808FA027908FB3B0130F936F80C02
:10062600890B112B0130FD02031D042B7B08F900F9
:100636007A08F8000800FB007808F039F900790814
:10064600FC007808F9000330F935FF3E031D272B1F
:100656007935FA007A08FD00823168228331F0018B
:100666007B088231932283317C080C3882317822D0
:1006760083317C0808388231782283317D080C3832
:100686008231782283317D0808388231782283319D
:100696007B0884310024833182316D220800F50104
:1006A600F601700871040319812BF701F70AF11B93
:1006B600662B0130F035F10D890B5D2B0130F4000E
:1006C6007408F7075A2B0130F535F60D890B672BA1
:1006D60071087302031D712B70087202031C782BBC
:1006E6007008F2027108F33B75140130F136F00C14
:1006F600890B792B0130F702031D662B7608F10072
:100706007508F0000800FB0078087039F9007908D0
:10071600FC007808F9000330F935FF3E031D8F2BE6
:100726007935FA007A08FD00823168228331F001BA
:100736007B088231932283317C088C38823178227F
:1007460083317C0888388231782283317D080C38E1
:100756008231782283317D080838823178228331CC
:100766007B08843100248331F9007908F80082314E
:100776006D220800FA00823168228331F0017A087E
:100786008231932283313C30823178228331383072
:100796008231782283313C3082317822833138307D
:1007A6008231782283313C3082317822833138306D
:1007B6008231782283312C3082317822833128307D
:1007C6008231782283310C308231782283310830AD
:1007D600823178228331FC30823178228331F830BD
:1007E6008231782283317A08843100248331F800FB
:1007F6007808F90082316D220800F70082316822FC
:100806008431F0017708823193228431FA308231C3
:1008160078228431FE30823178228431823163221B
:100826008431F001F00A7708823193228431013055
:100836008231B62284318039031D1A2C0030823170
:10084600B6228431F4007408F5007030F4007408A0
:10085600F505823163228431F001770882319322D3
:100866008431FA30823178228431FE308231782226
:100876008431823163228431F001F00A77088231B3
:100886009322843100308231B6228431F400740818
:10089600F600F60E0F30F6057508F4007408F60734
:1008A60082316D22760808002000A000823168227D
:1008B6008431F00120002008823193228431200007
:1008C600A301A4012408803AFA0080307A02031DAD
:1008D6006E2C790823020318AA2C20002308780717
:1008E600FA007A08860087010108F039FB007B08C8
:1008F600A10023087807FA007A0886008701010814
:10090600FB000330FB35FF3E031D852C7B35FC00C9
:100916007C08A20021080D3882317822843120001B
:1009260021080938823178228431200022080D38C6
:1009360082317822843120002208093882317822D7
:10094600843101302000A3070030A43D652C20002F
:10095600200884310024843182316D220800730816
:100966000319BA2C720871047004031DCB2C0030D5
:10097600F0000030F1000030F20008000130F50010
:100986007508F3070130F236F10CF00C890BC62C12
:10099600FE3072050319E42CC12C0130F5007508F0
:1009A600F3070130F007003003180130F10700307B
:1009B60003180130F2070130F236F10CF00C890B06
:1009C600DF2CFF3072050319F12CD02C0130F30215
:1009D6000130F035F10DF20D890BEC2CF11BF72CE3
:1009E600023073020318E92C7318FF2CFF30F00550
:1009F6007F30F105FF30F2050310F30C7308F500A4
:100A0600F601F7011030F535F60DF70D890B062DB9
:100A16007508F0047608F1047708F20474080319DF
:100A26000800F217080020003008B4003108B500AD
:100A36003208B6000310350D360DB7003708BD0075
:100A46003D08031D2F2D0030B3000030B2000030EA
:100A5600B1000030B00008003008B4003108B5001D
:100A66003208B6001730B636B50CB40C890B362DE5
:100A76003408B7003708B800B117FF30B005FF30AB
:100A8600B1050030B2053008B9003108BA003208A5
:100A9600BB00BC018E30BD02BD1F6D2D3D08803AE6
:100AA6008F3E03185F2D0030B3000030B2000030D7
:100AB600B1000030B00008000130BC36BB0CBA0CE7
:100AC600B90C890B602D0130B4003408BD07031939
:100AD600862D5F2D18303D02031C832D0030B30098
:100AE6000030B2000030B1000030B0000800013024
:100AF600B935BA0DBB0DBC0D890B7B2D0130BD027E
:100B06003D08031D7A2D38080319942DB909BA0931
:100B1600BB09BC09B90A0319BA0A0319BB0A0319A6
:100B2600BC0A3C08B3003B08B2003A08B1003908D9
:100B3600B000080020002308A6002408A700250806
:100B4600A8000310270D280DA9002908AE002E08BD
:100B5600031DB42D0030A0000030A1000030A2001B
:100B660008002008A6002108A7002208A8000310F4
:100B7600270D280DA9002908AF002F08031DCA2D2F
:100B86000030A0000030A1000030A20008000030B4
:100B9600AB000030AC000030AD0089302F07A60056
:100BA6002608AE022308A6002408A7002508A800E8
:100BB6001030A836A70CA60C890BDC2D2608A90038
:100BC6002908AF002008A6002108A7002208A800CF
:100BD6001030A836A70CA60C890BEC2D2608A90008
:100BE6002908AF068030A6002608AF05A417FF30F7
:100BF600A305FF30A4050030A505A117FF30A00509
:100C0600FF30A1050030A2051830A6002608AA006C
:100C16000130AB35AC0DAD0D890B0C2E220825022B
:100C2600031D1B2E21082402031D1B2E2008230250
:100C3600031C242E2008A3022108A43B2208A53B5E
:100C46002B140130A335A40DA50D890B252E0130DB
:100C5600AA02031D0B2E2B08F0002C08F1002D080C
:100C6600F2002E08A6002608F3002F08A700270882
:100C7600F4008431B22470082000A0007108A1009D
:100C86007208A20008002000AD002230A40024084B
:100C9600A8002108A5002008A400A00A0319A10A9B
:100CA60024088400250885000008A6002608AE0052
:100CB6002E0803190E2F25302E0603196E2E2E0828
:100CC600A4002D0886008701240881000130A400B5
:100CD6002408AD074C2EA9012108A5002008A40070
:100CE600A00A0319A10A2408840025088500000823
:100CF600AE00003A03190E2F643A0319862E0D3AF8
:100D06000319862E4C2E280886008701403FAB002B
:100D1600413FAC000230A4002408A807AC1F9C2E5B
:100D26000330A4002408A904AB09AC09AB0A0319D3
:100D3600AC0AAE01AE0A05302E060319C12E2E08E6
:100D4600A400A501A435A50D003024078400883031
:100D5600253D8500003FA600013FA70027082C027D
:100D6600031DB72E26082B02031CC12E0130A4003A
:100D76002408AE0705302E06031DA22E29080339C6
:100D86000319D02E2D30A4002D08860087012408D3
:100D960081000130A4002408AD072E08A400240811
:100DA600AA00FF30A4002408AA072A0A03194C2E19
:100DB6000A30F8000030F9002A08A400A501A4357D
:100DC600A50D0030240784008830253D8500003FAE
:100DD600F000013FF1002C08F3002B08F2008331EC
:100DE600522386317108FB007008FA008231F22224
:100DF60086317808303E2000A6002608AE002E0870
:100E0600A4002D0886008701240881000130A40073
:100E16002408AD07D42E2D0886008701810108001D
:100E2600200096019701D501D60121008C010230E0
:100E36008C008E0182317222873140302000BE0044
:100E46003E08D40082318722873127308331BD2383
:100E56008731F801F80A273083311E23873129307C
:100E66002000A0008830A100403086314626873118
:100E760040302000BE003E08F8000B30BF003F089F
:100E8600F900273084315724873182302000BE0094
:100E9600DD30890B4C2FBE0B4C2F0032F801F80ABF
:100EA600273083311E23873119302000A000883077
:100EB600A100403086314626873120000C1282314F
:100EC600A222873171082000D6007008D5000330B1
:100ED60056022030031955020318732F0C16742F6F
:100EE6000C120E140630890B762F003220000E10DD
:100EF600D701D80118148C187E2F18101708D8009F
:100F06001608D7005808F9005708F8008231D2228F
:100F1600873178082000A3007908A4007A08A50084
:100F26004830A0006B30A1004230A20085319D25DB
:100F3600873120002008B0002108B1002208B20045
:100F460085311625873120003108D8003008D700B2
:100F56005708013ED7000030583DD8000A30A0009F
:100F66008830A1005608A3005508A20040308631FB
:100F76004626873140302000BE003E08F80010307B
:100F8600BF003F08F90027308431572487314030AD
:100F96002000BE003E08F8002730833186238731C3
:100FA6001A302000A0008830A1005808A300570876
:100FB600A200403086314626873140302000BE00F0
:100FC6003E08F8001030BF003F08F9002730843192
:100FD6005724873182302000BE00DD30890BF12F87
:100FE600BE0BF12F0032F801F80A273083311E2399
:100FF6008731622F20008731132F013400340A34E1
:10100600003464340034E8340334103427344C3468
:101016006934673468347434563461346C347534E6
:10102600653420343D34203425346434003444346B
:10103600693473347434563461346C3475346534BD
:1010460020343D3420342534643400344834653447
:101056006C346C346F34203457346F3472346C34DF
:0410660064340034BA
:020000040001F9
:04000E00E4C9FFFE44
:00000001FF
