:08000000803102288731FD2F39
:1004C20082317D2224009614080082317D2224008C
:1004D2001614080082317D222400161508002D30E2
:1004E20021009D00C0309E000800F00082317D2274
:1004F2007008240091000800240016081F39031D0B
:100502007D2A141D08007D2A21000D160D172830A2
:1005120024009500960109309200C0309400080032
:10052200F2007235F1007108F3007008F1007108F1
:10053200F30782317D2273082400910008002D30D8
:1005420021009D000630F2003030890BA62AF20B02
:10055200A62A003221009D149D18AD2A1C08F10024
:100562001B08F0000800F10082317D228231240054
:10057200961582317D22823124001108F000700824
:10058200F20082317D22823171080319CB2A2400C4
:100592009612CD2A24009616161672080800FD013E
:1005A200F91FDA2AF809F909F80A0319F90AFD010B
:1005B200FD0A7808F0007908F100F2018E30FB00A4
:1005C2007B08F3007D08FC007C08F4008431B02431
:1005D2007008F8007108F9007208FA00080078083B
:1005E20079040319172BFD01FD0AF91B022B0130B7
:1005F200F835F90D890BF92A0130FC007C08FD075A
:10060200F62A79087B02031D082B78087A02031C5C
:100612000E2B7808FA027908FB3B0130F936F80C08
:10062200890B0F2B0130FD02031D022B7B08F90001
:100632007A08F8000800FB007808F039F900790818
:10064200FC007808F9000330F935FF3E031D252B25
:100652007935FA007A08FD00823166228331F00191
:100662007B088231912283317C080C3882317622D8
:1006720083317C0808388231762283317D080C3838
:100682008231762283317D080838823176228331A5
:100692007B088331FE23833182316B220800F5010E
:1006A200F6017008710403197F2BF701F70AF11B99
:1006B200642B0130F035F10D890B5B2B0130F40016
:1006C2007408F707582B0130F535F60D890B652BA9
:1006D20071087302031D6F2B70087202031C762BC4
:1006E2007008F2027108F33B75140130F136F00C18
:1006F200890B772B0130F702031D642B7608F1007A
:100702007508F0000800FB0078087039F9007908D4
:10071200FC007808F9000330F935FF3E031D8D2BEC
:100722007935FA007A08FD00823166228331F001C0
:100732007B088231912283317C088C388231762287
:1007420083317C0888388231762283317D080C38E7
:100752008231762283317D080838823176228331D4
:100762007B088331FE238331F9007908F800823156
:100772006B220800FA00823166228331F0017A0886
:100782008231912283313C3082317622833138307A
:100792008231762283313C30823176228331383085
:1007A2008231762283313C30823176228331383075
:1007B2008231762283312C30823176228331283085
:1007C2008231762283310C308231762283310830B5
:1007D200823176228331FC30823176228331F830C5
:1007E2008231762283317A088331FE238331F80005
:1007F2007808F90082316B220800F7008231662204
:100802008331F0017708823191228331FA308231CB
:1008120076228331FE308231762283318231612227
:100822008331F001F00A770882319122833101305D
:100832008231B42283318039031D182C0030823179
:10084200B4228331F4007408F5007030F4007408A7
:10085200F505823161228331F001770882319122DC
:100862008331FA30823176228331FE308231762230
:100872008331823161228331F001F00A77088231BB
:100882009122833100308231B4228331F400740822
:10089200F600F60E0F30F6057508F4007408F60738
:1008A20082316B22760808002000A0008231662285
:1008B2008431F0012000200882319122843120000D
:1008C200A301A4012408803AFA0080307A02031DB1
:1008D2006C2C790823020318A82C2000230878071F
:1008E200FA007A08860087010108F039FB007B08CC
:1008F200A10023087807FA007A0886008701010818
:10090200FB000330FB35FF3E031D832C7B35FC00CF
:100912007C08A20021080D38823176228431200021
:1009220021080938823176228431200022080D38CC
:1009320082317622843120002208093882317622DF
:10094200843101302000A3070030A43D632C200035
:1009520020088331FE23843182316B220800730820
:100962000319B82C720871047004031DC92C0030DD
:10097200F0000030F1000030F20008000130F50014
:100982007508F3070130F236F10CF00C890BC42C18
:10099200FE3072050319E22CBF2C0130F5007508F8
:1009A200F3070130F007003003180130F10700307F
:1009B20003180130F2070130F236F10CF00C890B0A
:1009C200DD2CFF3072050319EF2CCE2C0130F3021F
:1009D2000130F035F10DF20D890BEA2CF11BF52CEB
:1009E200023073020318E72C7318FD2CFF30F00558
:1009F2007F30F105FF30F2050310F30C7308F500A8
:100A0200F601F7011030F535F60DF70D890B042DBF
:100A12007508F0047608F1047708F20474080319E3
:100A22000800F217080020003008B4003108B500B1
:100A32003208B6000310350D360DB7003708BD0079
:100A42003D08031D2D2D0030B3000030B2000030F0
:100A5200B1000030B00008003008B4003108B50021
:100A62003208B6001730B636B50CB40C890B342DEB
:100A72003408B7003708B800B117FF30B005FF30AF
:100A8200B1050030B2053008B9003108BA003208A9
:100A9200BB00BC018E30BD02BD1F6B2D3D08803AEC
:100AA2008F3E03185D2D0030B3000030B2000030DD
:100AB200B1000030B00008000130BC36BB0CBA0CEB
:100AC200B90C890B5E2D0130B4003408BD0703193F
:100AD200842D5D2D18303D02031C812D0030B300A2
:100AE2000030B2000030B1000030B0000800013028
:100AF200B935BA0DBB0DBC0D890B792D0130BD0284
:100B02003D08031D782D38080319922DB909BA0939
:100B1200BB09BC09B90A0319BA0A0319BB0A0319AA
:100B2200BC0A3C08B3003B08B2003A08B1003908DD
:100B3200B000080020002308A6002408A70025080A
:100B4200A8000310270D280DA9002908AE002E08C1
:100B5200031DB22D0030A0000030A1000030A20021
:100B620008002008A6002108A7002208A8000310F8
:100B7200270D280DA9002908AF002F08031DC82D35
:100B82000030A0000030A1000030A20008000030B8
:100B9200AB000030AC000030AD0089302F07A6005A
:100BA2002608AE022308A6002408A7002508A800EC
:100BB2001030A836A70CA60C890BDA2D2608A9003E
:100BC2002908AF002008A6002108A7002208A800D3
:100BD2001030A836A70CA60C890BEA2D2608A9000E
:100BE2002908AF068030A6002608AF05A417FF30FB
:100BF200A305FF30A4050030A505A117FF30A0050D
:100C0200FF30A1050030A2051830A6002608AA0070
:100C12000130AB35AC0DAD0D890B0A2E2208250231
:100C2200031D192E21082402031D192E2008230258
:100C3200031C222E2008A3022108A43B2208A53B64
:100C42002B140130A335A40DA50D890B232E0130E1
:100C5200AA02031D092E2B08F0002C08F1002D0812
:100C6200F2002E08A6002608F3002F08A700270886
:100C7200F4008431B02470082000A0007108A100A3
:100C82007208A20008002000AD002230A40024084F
:100C9200A8002108A5002008A400A00A0319A10A9F
:100CA20024088400250885000008A6002608AE0056
:100CB2002E0803190C2F25302E0603196C2E2E0830
:100CC200A4002D0886008701240881000130A400B9
:100CD2002408AD074A2EA9012108A5002008A40076
:100CE200A00A0319A10A2408840025088500000827
:100CF200AE00003A03190C2F643A0319842E0D3A00
:100D02000319842E4A2E280886008701403FAB0033
:100D1200413FAC000230A4002408A807AC1F9A2E61
:100D22000330A4002408A904AB09AC09AB0A0319D7
:100D3200AC0AAE01AE0A05302E060319BF2E2E08EC
:100D4200A400A501A435A50D003024078400883035
:100D5200253D8500003FA600013FA70027082C0281
:100D6200031DB52E26082B02031CBF2E0130A40042
:100D72002408AE0705302E06031DA02E29080339CC
:100D82000319CE2E2D30A4002D08860087012408D9
:100D920081000130A4002408AD072E08A400240815
:100DA200AA00FF30A4002408AA072A0A03194A2E1F
:100DB2000A30F8000030F9002A08A400A501A43581
:100DC200A50D0030240784008830253D8500003FB2
:100DD200F000013FF1002C08F3002B08F2008331F0
:100DE200502386317108FB007008FA008231F0222C
:100DF20086317808303E2000A6002608AE002E0874
:100E0200A4002D0886008701240881000130A40077
:100E12002408AD07D22E2D08860087018101080023
:100E2200200096019701D501D60121008C010230E4
:100E32008C008E0182317022873140302000BE004A
:100E42003E08D40082318522873127308331BB238B
:100E52008731F801F80A273083311C238731293082
:100E62002000A0008830A10040308631442687311E
:100E720040302000BE003E08F8000B30BF003F08A3
:100E8200F900273084315524873182302000BE009A
:100E9200DD30890B4A2FBE0B4A2F0032F801F80AC7
:100EA200273083311C23873119302000A00088307D
:100EB200A100403086314426873120000C12823155
:100EC200A022873171082000D6007008D5000230B8
:100ED2005602C830031955020318712F0C16722FCF
:100EE2000C120E140630890B742F003220000E10E3
:100EF200D701D8018C1C7B2F18148C187E2F181048
:100F02001708D8001608D7005808F9005708F80043
:100F12008231D022873178082000A3007908A4000A
:100F22007A08A5004830A0006B30A1004230A20030
:100F320085319B25873120002008B0002108B100AF
:100F42002208B20085311425873120003108D800EB
:100F52003008D7005708013ED7000030583DD8006E
:100F62000A30A0008830A1005608A3005508A2004C
:100F7200403086314426873140302000BE003E0892
:100F8200F8001030BF003F08F900273084315524A3
:100F9200873140302000BE003E08F8002730833100
:100FA200842387311A302000A0008830A10058081D
:100FB200A3005708A20040308631442687314030D2
:100FC2002000BE003E08F8001030BF003F08F900C4
:100FD200273084315524873182302000BE00DD3035
:100FE200890BF12FBE0BF12F0032F801F80A2730DE
:100FF20083311C238731602F20008731112F013468
:1010020000340A34003464340034E83403341034D5
:1010120027344C3469346734683474345634613458
:101022006C347534653420343D34203425346434D2
:1010320000344434693473347434563461346C3457
:101042007534653420343D3420342534643400341E
:10105200483465346C346C346F34203457346F3414
:0810620072346C346434003474
:020000040001F9
:04000E00E4C9FFFE44
:00000001FF
