:08000000803102288731FD2F39
:100BF4008631162624009614080086311626240011
:100C040016140800863116262400161508002D3007
:100C140021009D00C0309E000800F0008631162699
:100C24007008240091000800240016081F39031DD1
:100C3400162E141D0800162E21000D160D1728302F
:100C440024009500960109309200C03094000800F9
:100C5400F2007235F1007108F3007008F1007108B8
:100C6400F3078631162673082400910008002D30FE
:100C740021009D000330F2009830890B3F2EF20BC7
:100C84003F2E21009D149D18452E1C08F1001B08C1
:100C9400F0000800F10086311626863124009615EE
:100CA40086311626863124001108F0007008F200FF
:100CB40086311626863171080319632E2400961294
:100CC400652E24009616161672080800F700723076
:100CD400F2007208F5007108F3007008F200F00ADF
:100CE4000319F10A72088400730885000008F400EF
:100CF4007408F600760803198B2E7608F20077083C
:100D040086008701720881000130F2007208F7073B
:100D14006D2E77088600870181010800FB007808A2
:100D2400F039F9007908FC007808F9000330F93546
:100D3400FF3E031D992E7935FA007A08FD008531AE
:100D4400FF258631F0017B0886312A2686317C080E
:100D54000C3886310F2686317C08083886310F26F8
:100D640086317D080C3886310F2686317D08083897
:100D740086310F2686317B088731072786318631F5
:100D840004260800FA008531FF258631F0017A082F
:100D940086312A2686313C3086310F26863138301A
:100DA40086310F2686313C3086310F268631383025
:100DB40086310F2686313C3086310F268631383015
:100DC40086310F2686312C3086310F268631283025
:100DD40086310F2686310C3086310F268631083055
:100DE40086310F268631FC3086310F268631F83065
:100DF40086310F2686317A08873107278631F80035
:100E04007808F900863104260800F7008531FF25AB
:100E14008731F001770886312A268731FA30863106
:100E24000F268731FE3086310F2687318531FA252A
:100E34008731F001F00A770886312A26873101309C
:100E440086314C2687318039031D212F00308631AD
:100E54004C268731F4007408F5007030F4007408EF
:100E6400F5058531FA258731F001770886312A2680
:100E74008731FA3086310F268731FE3086310F26CE
:100E840087318531FA258731F001F00A77088631F8
:100E94002A268731003086314C268731F4007408C5
:100EA400F600F60E0F30F6057508F4007408F60720
:100EB4008631042676080800210099012000B20139
:100EC400B30121008C018E010E1523008E01210037
:100ED4008E1523000E0808388E00863109268731C6
:100EE40020008D1B782F203021008C060030F0006C
:100EF400F10086313926873171082000B30070086B
:100F0400B20041302000A000EE30890B872FA00BE7
:100F1400872F0000722F2000B501B6013608803AF1
:100F2400A00083302002031D992FE83035020318F6
:100F3400CA2F1C302000A0002008F800273086317A
:100F44009026873102302000A1000430A000BA307E
:100F5400890BAA2FA00BAA2FA10BAA2F00000830DF
:100F6400F0008830F1002230863168268731200075
:100F74000E140130B5070030B63D3608803AA000A3
:100F840083302002031DC82FE8303502031C9B2F39
:100F94002000B701B8013808803AA000833020024D
:100FA400031DD62FE830370203188D2F1830200088
:100FB400A0002008F80027308631902687310230BF
:100FC4002000A1000430A000BA30890BE72FA00B49
:100FD400E72FA10BE72F00000030F0008830F1006C
:100FE400223086316826873120000E100130B70781
:100FF4000030B83DCD2F200087315E2F4C346F3444
:1010040077342F344F346634663400344F346E34BE
:0C1014002F3448346934673468340034E9
:020000040001F9
:04000E00E4C9FFFE44
:00000001FF
