:08000000803102288731FD2F39
:100A54008531462524009614080085314625240056
:100A640016140800853146252400161508002D307B
:100A740021009D00C0309E000800F000853146250D
:100A84007008240091000800240016081F39031D73
:100A9400462D141D0800462D21000D160D17283073
:100AA40024009500960109309200C030940008009B
:100AB400F2007235F1007108F3007008F10071085A
:100AC400F30785314625730824009100080078084F
:100AD400F0007908F100F2018E30FB007B08F3008E
:100AE400F401873199277008F8007108F900720839
:100AF400FA0008002D3021009D000B30F200623016
:100B0400890B822DF20B822D003221009D149D1839
:100B1400892D1C08F1001B08F0000800F100853144
:100B240046258531240096158531462585312400D6
:100B34001108F0007008F2008531462585317108EE
:100B44000319A72D24009612A92D24009616161613
:100B540072080800F7007230F2007208F50071089C
:100B6400F3007008F200F00A0319F10A7208840015
:100B7400730885000008F4007408F6007608031969
:100B8400CF2D7608F200770886008701720881006D
:100B94000130F2007208F707B12D7708860087014B
:100BA40081010800FB0078087039F9007908FC001D
:100BB4007808F9000330F935FF3E031DDD2D793542
:100BC400FA007A08FD0085312F258531F0017B0874
:100BD40085315A2585317C088C3885313F2585310E
:100BE4007C08883885313F2585317D080C3885316E
:100BF4003F2585317D08083885313F2585317B08BF
:100C040086318A268531F9007908F8008531342542
:100C140008002000A21F222E2009A6002109A700F7
:100C24002209A800A60A0319A70A0319A80A003072
:100C34002607A0000030273DA1008030283DA200F7
:100C4400A51F382E2309A6002409A7002509A800FA
:100C5400A60A0319A70A0319A80A00302607A30045
:100C64000030273DA4008030283DA5008030A20636
:100C74008030A50625082202031D0800240821024D
:100C8400031D0800230820020800FA0085312F25DF
:100C94008631F0017A0885315A2586313C30853118
:100CA4003F258631383085313F2586313C308531CA
:100CB4003F258631383085313F2586313C308531BA
:100CC4003F258631383085313F2586312C308531BA
:100CD4003F258631283085313F2586310C308531DA
:100CE4003F258631083085313F258631FC308531FA
:100CF4003F258631F83085313F2586317A088631A3
:100D04008A268631F8007808F900853134250800F0
:100D1400F70085312F258631F001770885315A2572
:100D24008631FA3085313F258631FE3085313F25C5
:100D3400863185312A258631F001F00A770885311C
:100D44005A25863101308531902586318039031D3D
:100D5400A42E0030853190258631F4007408F50006
:100D64007030F4007408F50585312A258631F001C8
:100D7400770885315A258631FA3085313F25863109
:100D8400FE3085313F25863185312A258631F001B3
:100D9400F00A770885315A2586310030853190254F
:100DA4008631F4007408F600F60E0F30F605750867
:100DB400F4007408F607853134257608080020000D
:100DC400A00085312F258631F001200020088531CF
:100DD4005A2586312000A301A4012408803AFA0090
:100DE40080307A02031DF82E790823020318342F69
:100DF400200023087807FA007A0886008701010892
:100E0400F039FB007B08A10023087807FA007A0870
:100E1400860087010108FB000330FB35FF3E031DFC
:100E24000F2F7B35FC007C08A20021080D3885318A
:100E34003F25863120002108093885313F25863138
:100E4400200022080D3885313F25863120002208F4
:100E5400093885313F25863101302000A307003051
:100E6400A43DEF2E2000200886318A268631853164
:100E740034250800200096019701C001C10121001A
:100E84008C0104308C008531392587312B302000CA
:100E9400A9002908BF0085314E25873127308631C6
:100EA4004726873140302000A9002908F800273060
:100EB4008531D42587310030F0008830F1002B30A3
:100EC4008531AC2587312B302000A9002908F80092
:100ED4000B30AA002A08F90027308631E126873131
:100EE400962F20000C1685317C258731710820004F
:100EF400C1007008C0004108F9004008F8008531BD
:100F04006925873178082000A0007908A1007A08B3
:100F1400A2000030A3003230A4004430A500863182
:100F24000B268731031C732F20000C12752F7308B6
:100F34000319A12F720871047004031DB22F00302D
:100F4400F0000030F1000030F20008000130F5003C
:100F54007508F3070130F236F10CF00C890BAD2F54
:100F6400FE3072050319CB2FA82F0130F500750848
:100F7400F3070130F007003003180130F1070030A7
:100F840003180130F2070130F236F10CF00C890B32
:100F9400C62FFF3072050319D82FB72F0130F30283
:100FA4000130F035F10DF20D890BD32FF11BDE2F3B
:100FB400023073020318D02F7318E62FFF30F005A8
:100FC4007F30F105FF30F2050310F30C7308F500D0
:100FD400F601F7011030F535F60DF70D890BED2FFD
:100FE4007508F0047608F1047708F204740803190C
:100FF4000800F2170800200087313C2F483465347C
:101004006C346C346F34203457346F3472346C3431
:04101400643400340C
:020000040001F9
:04000E00E4C9FFFE44
:00000001FF
