:08000000803102288731FD2F39
:100568008231D0222400961408008231D02224003F
:10057800161408008231D0222400161508002D30E8
:1005880021009D00C0309E000800F0008231D0227A
:100598007008240091000800240016081F39031D64
:1005A800D02A141D0800D02A21000D160D17283056
:1005B80024009500960109309200C030940008008C
:1005C800F2007235F1007108F3007008F10071084B
:1005D800F3078231D02273082400910008002D30DF
:1005E80021009D000B30F2006230890BF92AF20BD2
:1005F800F92A003221009D149D18002B1C08F100D7
:100608001B08F0000800F1008231D0228331240059
:1006180096158231D022833124001108F000700829
:10062800F2008231D0228331710803191E2B240075
:100638009612202B24009616161672080800FD0143
:10064800F91F2D2BF809F909F80A0319F90AFD0110
:10065800FD0A7808F0007908F100F2018E30FB00FD
:100668007B08F3007D08FC007C08F4008431CC246E
:100678007008F8007108F9007208FA000800780894
:10068800790403196A2BFD01FD0AF91B552B01306A
:10069800F835F90D890B4C2B0130FC007C08FD075F
:1006A800492B79087B02031D5B2B78087A02031C0F
:1006B800612B7808FA027908FB3B0130F936F80C0F
:1006C800890B622B0130FD02031D552B7B08F900B5
:1006D8007A08F8000800FB007808F039F900790872
:1006E800FC007808F9000330F935FF3E031D782B2C
:1006F8007935FA007A08FD008231B9228331F00198
:100708007B088231E42283317C080C388231C9228B
:1007180083317C0808388231C92283317D080C383E
:100728008231C92283317D0808388231C922833158
:100738007B0884311A2483318231BE220800F501F6
:10074800F601700871040319D22BF701F70AF11B9F
:10075800B72B0130F035F10D890BAE2B0130F400C9
:100768007408F707AB2B0130F535F60D890BB82B5C
:1007780071087302031DC22B70087202031CC92B77
:100788007008F2027108F33B75140130F136F00C71
:10079800890BCA2B0130F702031DB72B7608F1002D
:1007A8007508F0000800FA008231B9228331F0019F
:1007B8007A088231E42283313C308231C922833184
:1007C80038308231C92283313C308231C9228331A9
:1007D80038308231C92283313C308231C922833199
:1007E80038308231C92283312C308231C922833199
:1007F80028308231C92283310C308231C9228331B9
:1008080008308231C9228331FC308231C9228331D8
:10081800F8308231C92283317A0884311A2483312D
:10082800F8007808F9008231BE220800F70082310A
:10083800B9228431F00177088231E4228431FA3018
:100848008231C9228431FE308231C9228431823119
:10085800B4228431F001F00A77088231E42284312D
:1008680001308331072384318039031D342C003053
:10087800833107238431F4007408F5007030F400E4
:100888007408F5058231B4228431F0017708823189
:10089800E4228431FA308231C9228431FE30823137
:1008A800C92284318231B4228431F001F00A7708F8
:1008B8008231E42284310030833107238431F4000B
:1008C8007408F600F60E0F30F6057508F400740883
:1008D800F6078231BE22760808002000A000823187
:1008E800B9228431F001200020088231E4228431C9
:1008F8002000A301A4012408803AFA0080307A027B
:10090800031D882C790823020318C42C200023080F
:100918007807FA007A08860087010108F039FB0099
:100928007B08A10023087807FA007A088600870167
:100938000108FB000330FB35FF3E031D9F2C7B3570
:10094800FC007C08A20021080D388231C9228431BC
:100958002000210809388231C92284312000220868
:100968000D388231C92284312000220809388231A9
:10097800C922843101302000A3070030A43D7F2C18
:100988002000200884311A2484318231BE220800D4
:1009980073080319D42C720871047004031DE52C24
:1009A8000030F0000030F1000030F20008000130A3
:1009B800F5007508F3070130F236F10CF00C890BDD
:1009C800E02CFE3072050319FE2CDB2C0130F500FB
:1009D8007508F3070130F007003003180130F107FC
:1009E800003003180130F2070130F236F10CF00C38
:1009F800890BF92CFF30720503190B2DEA2C0130F5
:100A0800F3020130F035F10DF20D890B062DF11BC3
:100A1800112D023073020318032D7318192DFF309E
:100A2800F0057F30F105FF30F2050310F30C730871
:100A3800F500F601F7011030F535F60DF70D890BC5
:100A4800202D7508F0047608F1047708F20474087C
:100A580003190800F217080020003008B400310814
:100A6800B5003208B6000310350D360DB70037084B
:100A7800BD003D08031D492D0030B3000030B20011
:100A88000030B1000030B00008003008B400310870
:100A9800B5003208B6001730B636B50CB40C890B61
:100AA800502D3408B7003708B800B117FF30B0052B
:100AB800FF30B1050030B2053008B9003108BA007E
:100AC8003208BB00BC018E30BD02BD1F872D3D081A
:100AD800803A8F3E0318792D0030B3000030B20001
:100AE8000030B1000030B00008000130BC36BB0C4B
:100AF800BA0CB90C890B7A2D0130B4003408BD0743
:100B08000319A02D792D18303D02031C9D2D0030AE
:100B1800B3000030B2000030B1000030B00008006F
:100B28000130B935BA0DBB0DBC0D890B952D0130BF
:100B3800BD023D08031D942D38080319AE2DB909CF
:100B4800BA09BB09BC09B90A0319BA0A0319BB0ACD
:100B58000319BC0A3C08B3003B08B2003A08B100CC
:100B68003908B000080020002308A6002408A700C0
:100B78002508A8000310270D280DA9002908AE0094
:100B88002E08031DCE2D0030A0000030A10000303B
:100B9800A20008002008A6002108A7002208A80033
:100BA8000310270D280DA9002908AF002F08031DE1
:100BB800E42D0030A0000030A1000030A2000800A1
:100BC8000030AB000030AC000030AD0089302F079A
:100BD800A6002608AE022308A6002408A7002508B8
:100BE800A8001030A836A70CA60C890BF62D2608ED
:100BF800A9002908AF002008A6002108A70022089C
:100C0800A8001030A836A70CA60C890B062E2608BB
:100C1800A9002908AF068030A6002608AF05A4174A
:100C2800FF30A305FF30A4050030A505A117FF304C
:100C3800A005FF30A1050030A2051830A60026083F
:100C4800AA000130AB35AC0DAD0D890B262E22085C
:100C58002502031D352E21082402031D352E2008E8
:100C68002302031C3E2E2008A3022108A43B2208CD
:100C7800A53B2B140130A335A40DA50D890B3F2EE0
:100C88000130AA02031D252E2B08F0002C08F100C4
:100C98002D08F2002E08A6002608F3002F08A7004A
:100CA8002708F4008431CC2470082000A0007108C3
:100CB800A1007208A20008002000AD002230A400A4
:100CC8002408A8002108A5002008A400A00A0319E8
:100CD800A10A24088400250885000008A600260823
:100CE800AE002E080319282F25302E060319882E4A
:100CF8002E08A4002D0886008701240881000130F1
:100D0800A4002408AD07662EA9012108A500200823
:100D1800A400A00A0319A10A240884002508850054
:100D28000008AE00003A0319282F643A0319A02ED0
:100D38000D3A0319A02E662E280886008701403F29
:100D4800AB00413FAC000230A4002408A807AC1F48
:100D5800B62E0330A4002408A904AB09AC09AB0AD9
:100D68000319AC0AAE01AE0A05302E060319DB2EB4
:100D78002E08A400A501A435A50D00302407840081
:100D88008830253D8500003FA600013FA7002708C1
:100D98002C02031DD12E26082B02031CDB2E01304A
:100DA800A4002408AE0705302E06031DBC2E290812
:100DB80003390319EA2E2D30A4002D088600870177
:100DC800240881000130A4002408AD072E08A400DF
:100DD8002408AA00FF30A4002408AA072A0A031935
:100DE800662E0A30F8000030F9002A08A400A50190
:100DF800A435A50D0030240784008830253D8500E2
:100E0800003FF000013FF1002C08F3002B08F2002E
:100E18008331A32386317108FB007008FA008331FF
:100E2800432386317808303E2000A6002608AE000D
:100E38002E08A4002D0886008701240881000130AF
:100E4800A4002408AD07EE2E2D0886008701810135
:100E58000800200096019701D501D60121008C01D8
:100E680004308C008231C322873140302000BE001C
:100E78003E08D4008231D822873127308331D723E6
:100E88008731F801F80A273083316F2387311A3008
:100E98002000A0008830A1004030863160268731CC
:100EA80040302000BE003E08F8000B30BF003F086D
:100EB800F900273084317124873102302000BF00C7
:100EC8000430BE00BA30890B672FBE0B672FBF0BEB
:100ED800672F0000F801F80A273083316F23873124
:100EE80019302000A0008830A100403086316026EB
:100EF800873120000C128231F322873171082000DB
:100F0800D6007008D5000A30A0008830A100560825
:100F1800A3005508A2004030863160268731403052
:100F28002000BE003E08F8001030BF003F08F9005E
:100F38002730843171248731023020005602C830AE
:100F4800031955020318AA2F0C16AB2F0C120230E6
:100F58002000BF000430BE00BA30890BB12FBE0B91
:100F6800B12FBF0BB12F0000F801F80A27308331E9
:100F78006F23873120008E144230890BC12F003235
:100F880020008E10D701D80118140C19C92F181079
:100F98001708D8001608D7005808F9005708F800AD
:100FA80083312323873178082000A3007908A4001F
:100FB8007A08A5004830A0006B30A1004230A2009A
:100FC8008531B725873120002008B0002108B100FD
:100FD8002208B20085313025873120003108D80039
:100FE8003008D7005708013ED7000030583DD800D8
:100FF8007F2F200087312D2F013400340A3400342C
:1010080064340034E8340334103427346C346934DD
:10101800673468347434563461346C3475346534E8
:1010280020343D3420342534643400344834653465
:101038006C346C346F34203457346F3472346C34FD
:0410480064340034D8
:020000040001F9
:04000E00E4C9FFFE44
:00000001FF
