:020000040000FA
:100000000228090021006A30990021008C01220099
:100010008C0121008D1723008D132100873095005E
:100020009A002500980125009E01200092102000D2
:1000300005309C0022001E1421008C162000FF3089
:100040009B0025000C3021002D309D0040309E008B
:1000500021008D1623008D16080021009D149D1887
:100060002F28080021001C082500980008002320E4
:100070001A202000911C392821008C122D203220BA
:1000800042203E2820002030A000A00B4828080075
:0A009000FF30A100A10B4A2845280B
:04009A0000340034FA
:020000040001F9
:02000E00E40903
:02001000FF3EB1
:00000001FF
