:020000040000FA
:020000000328D3
:040002000034003492
:0A0006002520112021006A30990026
:100010002000911C082821008C122F203420392028
:100020000D2822001E1421008C162000FF309B009A
:1000300025000C309A002500980125009E01200023
:100040009210200005309C00080021002D309D00FA
:1000500040309E0021008D1623008D1608002100DF
:100060009D149D183128080021001C0825009800C7
:10007000080020002030A000A00B3F280800FF301F
:08008000A100A10B41283C285E
:020000040001F9
:02000E00E40903
:02001000FF3EB1
:00000001FF
