:08000000803102288731ED2F49
:100ECE002D3021009D00C0309E000800E834033410
:100EDE000034003404340034013022009E00FF3010
:100EEE0020009B000C3025009A0098019E012000E6
:100EFE00110805309C0008002D3021009D000330A4
:100F0E00F2009830890B892FF20B892F21009D1446
:100F1E009D188F2F1C08F1001B08F00008000430EC
:100F2E00710200300319700203180800701CA22F02
:100F3E0025001A16A42F25001A127108F300700846
:100F4E00F200F336F20C721CAF2F25009A16B12F59
:100F5E0025009A127108F3007008F200F336F20CB5
:100F6E00F336F20C720898000800F501F601210024
:100F7E008C018E010E1523008E0121008E1523008B
:100F8E000E0808388E00873167278731873173271F
:100F9E00873120008D1BD62F203021008C06873103
:100FAE00832787317108F6007008F5007608F10086
:100FBE007508F0008731962787314130F400EE3006
:100FCE00890BE72FF40BE72F0032D02F6D30840002
:100FDE00873085001200F7001200F8001200F900A9
:100FEE001200FA001200FB001200FC0020008731F4
:020FFE00BC2F06
:020000040001F9
:04000E00E4C9FFFE44
:00000001FF
