:08000000803102288731F32F43
:10058000F0002000111EC12A700823009A00080004
:100590002000320831043004031908008030B2060C
:1005A0000800200020308C060230F1000430F000FA
:1005B000BA30890BD92AF00BD92AF10BD92A00328B
:1005C000080021008E160E16003023009C00193002
:1005D0009B0090309D0024309E009E161E129D1799
:1005E0001E1508007808F0007908F100F2018E303D
:1005F000FB007B08F300F401833182237008F800CC
:100600007108F9007208FA0008006A3021009900A8
:1006100022001D159D17103021008C001030230082
:100620008C000C3021008E000C3023008E00F03046
:1006300021008D00F03023008D008B0122009716E1
:1006400017120800780879040319492BFD01FD0AE7
:10065000F91B342B0130F835F90D890B2B2B0130A8
:10066000FC007C08FD07282B79087B02031D3A2B30
:1006700078087A02031C402B7808FA027908FB3BC1
:100680000130F936F80C890B412B0130FD02031DB6
:10069000342B7B08F9007A08F8000800F501F60110
:1006A0007008710403197D2BF701F70AF11B622B07
:1006B0000130F035F10D890B592B0130F40074082D
:1006C000F707562B0130F535F60D890B632B7108B2
:1006D0007302031D6D2B70087202031C742B7008CB
:1006E000F2027108F33B75140130F136F00C890BFE
:1006F000752B0130F702031D622B7608F100750897
:10070000F0000800730803198A2B72087104700442
:10071000031D9B2B0030F0000030F1000030F20090
:1007200008000130F5007508F3070130F236F10CCE
:10073000F00C890B962BFE3072050319B42B912B0C
:100740000130F5007508F3070130F0070030031899
:100750000130F107003003180130F2070130F236A2
:10076000F10CF00C890BAF2BFF3072050319C12B74
:10077000A02B0130F3020130F035F10DF20D890BA1
:10078000BC2BF11BC72B023073020318B92B731853
:10079000CF2BFF30F0057F30F105FF30F20503105D
:1007A000F30C7308F500F601F7011030F535F60D7E
:1007B000F70D890BD62B7508F0047608F10477083D
:1007C000F204740803190800F21708002000230837
:1007D000A6002408A7002508A8000310270D280D4F
:1007E000A9002908AE002E08031DFD2B0030A00033
:1007F0000030A1000030A20008002008A600210857
:10080000A7002208A8000310270D280DA900290819
:10081000AF002F08031D132C0030A0000030A100F2
:100820000030A20008000030AB000030AC00003007
:10083000AD0089302F07A6002608AE022308A600C7
:100840002408A7002508A8001030A836A70CA60C7D
:10085000890B252C2608A9002908AF002008A6002E
:100860002108A7002208A8001030A836A70CA60C63
:10087000890B352C2608A9002908AF068030A60070
:100880002608AF05A417FF30A305FF30A4050030EC
:10089000A505A117FF30A005FF30A1050030A20576
:1008A0001830A6002608AA000130AB35AC0DAD0DFE
:1008B000890B552C22082502031D642C21082402D3
:1008C000031D642C20082302031C6D2C2008A302A6
:1008D0002108A43B2208A53B2B140130A335A40D0D
:1008E000A50D890B6E2C0130AA02031D542C2B0878
:1008F000F0002C08F1002D08F2002E08A6002608B2
:10090000F3002F08A7002708F40083318223700822
:100910002000A0007108A1007208A20008002000B9
:100920004008C6004108C7004208C8000310470D30
:10093000480DC9004908CA004A08031DA62C00300A
:10094000C0000030C1000030C20008004308C600EB
:100950004408C7004508C8000310470D480DC900EA
:100960004908CF004F08031DBC2C0030C0000030E8
:10097000C1000030C20008004F087B3EC600460898
:10098000CA074008C6004108C7004208C800103026
:10099000C836C70CC60C890BC82C4608C9004908C4
:1009A000CF004308C6004408C7004508C8001030FF
:1009B000C836C70CC60C890BD82C4608C900490894
:1009C000CF068030C6004608CF05C117C417FF30D8
:1009D000C305FF30C4050030C5050030CB00003032
:1009E000CC000030CD000730C6004608CE00401CC9
:1009F000FF2C4308CB074408CC3D4508CD3D0130D2
:100A0000C236C10CC00C890B002D0130C335C40D9A
:100A1000C50D890B062D0130CE02031DF72C0930C0
:100A2000C6004608CE00401C1B2D4308CB074408D7
:100A3000CC3D4508CD3D0130C236C10CC00C890B00
:100A40001C2D0130CD36CC0CCB0C890B222D013066
:100A5000CE02031D132D4B08F0004C08F1004D0889
:100A6000F2004A08C6004608F3004F08C7004708CE
:100A7000F4008331822370082000C0007108C10097
:100A80007208C200080022302000A8002808AC002C
:100A900020002108A9002008A800A00A0319A10A23
:100AA00028088400290885000008AA002A08B10047
:100AB000310803190800253031060319642D310867
:100AC0008231C0228531482D2000AD012108A900C6
:100AD0002008A800A00A0319A10A280884002908F0
:100AE00085000008B100003A0319F92D643A031992
:100AF0007D2D0D3A03197D2D482D2C088600870188
:100B0000403FAF00413FB0000230A8002808AC07CA
:100B1000B01F932D0330A8002808AD04AF09B00919
:100B2000AF0A0319B00AB101B10A05303106031941
:100B3000B82D3108A800A901A835A90D0030280753
:100B400084008830293D8500003FAA00013FAB00AA
:100B50002B083002031DAE2D2A082F02031CB82DCE
:100B60000130A8002808B10705303106031D992D72
:100B70002D0803390319C02D2D308231C022853153
:100B800020003108A8002808AE00FF302000A8008F
:100B90002808AE072E0A0319482D0A30F800003045
:100BA000F9002E08A800A901A835A90D00302807D2
:100BB00084008830293D8500003FF000013FF100AE
:100BC0003008F3002F08F20083314E23853171087D
:100BD000FB007008FA008331222385317808303E0B
:100BE0002000AA002A08B10031088231C0228531D4
:100BF000C52D080020003308B9003408BA003508B4
:100C0000BB0003103A0D3B0DBC003C08BF0036088A
:100C1000B9003708BA003808BB0003103A0D3B0D85
:100C2000BC003C08BE003F080319222E3E083F02CC
:100C30000318292E3F03FF3A3E07B9001930390245
:100C4000031C292E3608B3003708B4003808B50055
:100C500008003E08031908003F083E020318382E1A
:100C60003E03FF3A3F07B900193039020318080064
:100C70000630B9003908BD00B51BBD17B81B3D17BC
:100C8000B417FF30B305FF30B4050030B505B71712
:100C9000FF30B605FF30B7050030B8053E083F020B
:100CA0000318742E0130B635B70DB80D890B532ECD
:100CB0000130BE023E083F0603196F2E0130BD020F
:100CC0003D08073903196F2E522E0130B536B40C8A
:100CD000B30C890B662E0130B9003908BF073F08F5
:100CE0003E060319992E652E3F083E020318992EE1
:100CF0000130B335B40DB50D890B792E0130BF022B
:100D00003E083F060319952E0130BD023D08073904
:100D10000319952E782E0130B836B70CB60C890B16
:100D20008C2E0130B9003908BE073F083E06031D6E
:100D30008B2EBD1FAB2EFF30B306FF30B406FF3045
:100D4000B5060130B307003003180130B407003096
:100D500003180130B5073D1FBD2EFF30B606FF302A
:100D6000B706FF30B8060130B6070030031801306F
:100D7000B707003003180130B807BD013308B607C4
:100D80003408B73D3508B83DB81FD82EFF30B60639
:100D9000FF30B706FF30B8060130B6070030031841
:100DA0000130B707003003180130B807BD01BD0A94
:100DB0003608F0003708F1003808F2003F08B900A3
:100DC0003908F3003D08BA003A08F4008331822361
:100DD00070082000B3007108B4007208B500080064
:100DE0008331052386318231E1228631A23022000F
:100DF0009700C03021009E002D3021009D000D3055
:100E00002000D000FB30890B032FD00B032F0032C2
:100E100021009D149D180A2F1C082000E0002100CD
:100E20001B082000DF007D3021009D000D302000D8
:100E3000D000FB30890B1A2FD00B1A2F0032210063
:100E40009D149D18212F1C082000DC0021001B0888
:100E50002000DB00753021009D000D302000D00007
:100E6000FB30890B312FD00B312F003221009D1424
:100E70009D18382F1C082000DE0021001B082000D0
:100E8000DD005E08F9005D08F8008231F22286314B
:100E900078082000A3007908A4007A08A500C030D3
:100EA000A0007F30A1004430A2008331E6238631C8
:100EB00020002008B0002108B1002208B2008231D1
:100EC000C822863120003008B6003108B700320849
:100ED000B8000030B3008030B4003F30B500853139
:100EE000FA25863120003308C3003408C4003508D1
:100EF000C5007130C000BD30C1003F30C200843138
:100F00008F24863120004008D2004108D3004208D7
:100F1000D4000430A000AD30A1003A30A200B430BB
:100F2000B3002830B4003F30B5005208B000530879
:100F3000B1005408B2008231C82286312000300846
:100F4000B6003108B7003208B8008531FA2586317D
:100F500020003308A3003408A4003508A50083311D
:100F6000E623863120002008D5002108D60022087B
:100F7000D7000030B3002030B400C230B5005508AF
:100F8000B6005608B7005708B8008531FA258631F3
:100F900020003308D8003408D9003508DA000A30B8
:100FA000A0008830A1005E08A3005D08A2006008D0
:100FB000A5005F08A4005C08A7005B08A6008531B7
:100FC0004325863106302000D1001330D000AD30EB
:100FD000890BE82FD00BE82FD10BE82F003282319C
:100FE000D1228631FC2E2000D801D901DA01DB01A3
:100FF000DC01DD01DE01DF01E00120008631F02EA1
:10100000013400340A34003464340034E8340334E6
:1010100010342734523461347734203454346534F6
:101020006D3470342034763461346C347534653406
:1010300020346934733420342534643420345234F9
:101040004134573420347C34203450346F34743479
:101050002034763461346C3475346534203469342A
:10106000733420342534643420347C3420344634C2
:101070006934783465346434203456346F346C34D5
:101080007434613467346534203469347334203403
:0C1090002534643420340A340D3400345C
:020000040001F9
:04000E00E4C9FFFE44
:00000001FF
