:08000000803102288731F62F40
:10000A0021008E160E16003023009C0019309B002A
:10001A0090309D0024309E009E161E129D171E15BC
:10002A0008008E30FC007C08FD00FF307B050319B8
:10003A002A280130FB36FA0CF90CF80C890B1F2818
:10004A000130FC007C08FD071A287808F0007908BE
:10005A00F1007A08F2007D08FC007C08F300F40144
:10006A00883106207008F8007108F9007208FA0051
:10007A0008007008F6007108F7007208F80003100B
:10008A00770D780DF90079082000A5002508031DD1
:10009A0057280030F3000030F2000030F100003041
:1000AA00F00008007308F6007408F7007508F800F5
:1000BA000310770D780DF9007908A4002408031DB0
:1000CA006F280030F3000030F2000030F1000030F9
:1000DA00F0000800F117FF30F005FF30F10500309D
:1000EA00F205F417FF30F305FF30F4050030F5058B
:1000FA000030A3000030A2000030A1000030A000B0
:10010A007F30A50298302407F6007608A502183039
:10011A00F6007608A4000130A035A10DA20DA30DAA
:10012A00890B912875087202031DA12874087102AF
:10013A00031DA12873087002031CAA287308F00281
:10014A007408F13B7508F23B20140130F035F10DCB
:10015A00F20D890BAB280130A402031D9028A51FBC
:10016A00D2282508803A973E0318C4280030F300A5
:10017A000030F2000030F1000030F00008000130D9
:10018A00A336A20CA10CA00C890BC5280130F600DD
:10019A007608A5070319EB28C42818302502031C82
:1001AA00E8280030F3000030F2000030F10000309F
:1001BA00F00008000130A035A10DA20DA30D890B96
:1001CA00E0280130A5022508031DDF282308F300D3
:1001DA002208F2002108F1002008F0000800A230ED
:1001EA002000E70067082100AF0021002108200055
:1001FA00E800210020082000E7002100A00A0319D6
:10020A00A10A200067088400680885000008E90040
:10021A0069082100C3004308031908002530430672
:10022A0003191C29430894312C248031FA2821000F
:10023A00BC01BD01BA01BB0127293A150130A0074B
:10024A000030A13D20088400210885000008303ACA
:10025A000319222930292008840021088500000872
:10026A0094313D248031031C76292100BC01BD0153
:10027A000A302000A4000030A50021003D0820001B
:10028A00A70021003C082000A60094315E2480319A
:10029A00200025082100BD00200024082100BC0000
:1002AA0020088400210885000008D03E2000E700CD
:1002BA00FF3003180030E80067082100BC0720005F
:1002CA0068082100BD3D0130A0070030A13D20088B
:1002DA00840021088500000894313D2480310318E8
:1002EA003D292100200884002108850012002E3AA9
:1002FA00031DBD293B170130A0070030A13DC101F4
:10030A00C2012008840021088500000894313D2498
:10031A008031031CC429210020088400210885009B
:10032A0000082000E700E801210042082000A5009B
:10033A00210041082000A4000A30A6000030A700CE
:10034A0094315E248031200067082407E900680898
:10035A00253DEA006908D03E2100C100FF30200097
:10036A006A3D2100C2000130A0070030A13D862964
:10037A002100C101C2013B16C4293B15E529210010
:10038A0021082000E800210020082000E7002100C1
:10039A00A00A0319A10A20006708840068088500DA
:1003AA0000082100C300003A0319F52F643A031923
:1003BA00E529023A0319C2290F3A0319E529FA284D
:1003CA0000303A052000E700073021003B052000F5
:1003DA00E8006708680403195D2E21003B1EF9290D
:1003EA000630C1000030C2002F0886008701403F56
:1003FA00BE00413FBF00423FC00003302000E7007B
:10040A0067082100AF073E08F0003F08F1004008E6
:10041A00F2000030F3000030F4000030F5009431AF
:10042A00B52480310318382A21003E082000B00084
:10043A0021003F082000B100210040082000B2003E
:10044A00943134248031200030082100BE0020007D
:10045A0031082100BF00200032082100C00003300B
:10046A00BA040030BB042100B801B90140083F04B6
:10047A003E040319F82ABE3086008701403F200057
:10048A00E700413FE800423FE900433FEA000F30FE
:10049A00EA36E90CE80CE70C890B4D2AFF306705B0
:1004AA00EB0000306805EC006B08823E2100B800C2
:1004BA00FF3020006C3D2100B900FF30B807FF3043
:1004CA00B93D03302000A4000030A50021003908FE
:1004DA002000A700210038082000A60094315E24DD
:1004EA008031200025082100B900200024082100BD
:1004FA00B8000A30F7000030F8003908FA00380866
:10050A00F9009531CA25803178082100B9007708A9
:10051A00B800B91F942AFF30B807FF30B93D380335
:10052A00FF3A8D31BC258031200050082100B000EF
:10053A00200051082100B100200052082100B20019
:10054A003E082000C00021003F082000C100210011
:10055A0040082000C200210030082000C30021000A
:10056A0031082000C400210032082000C50097315C
:10057A004C278031200040082100B00020004108AB
:10058A002100B100200042082100B2003008F0002A
:10059A003108F1003208F2000030F3008030F40034
:1005AA003F30F5009431B52480310318E12AFF3039
:1005BA002100B807FF30F72A21003008F00031087F
:1005CA00F1003208F2000030F3002030F40041302C
:1005DA00F5009431B5248031031CF82A013021003A
:1005EA00B8070030B93D21004208803A2000E700F0
:1005FA0080306702031D042B0D30210041020318CD
:10060A002D2B210041088A317D228031200050089B
:10061A00B3005108B4005208B50021003E0820007A
:10062A00B60021003F082000B70021004008200042
:10063A00B80088316A208031200033082100BE00CA
:10064A00200034082100BF00200035082100C00026
:10065A0021003908803A2000E70080306702031D34
:10066A00392B0A30210038020318642B2100400874
:10067A003F043E040319AC2B3E082000D900210098
:10068A003F082000DA00210040082000DB009631F4
:10069A001C26803120005C085B045A045904031D9F
:1006AA00AC2B21003908803A2000E700803067022D
:1006BA00031D622B023021003802031CAC2B2100DF
:1006CA003008F0003108F1003208F2007030F3000F
:1006DA008930F4004030F5009431B5248031031894
:1006EA00782BF730792BF8302100B807FF30B93D65
:1006FA0038088D31BC258031200050082100B00017
:10070A00200051082100B100200052082100B20047
:10071A003E08F0003F08F1004008F2003008F300FC
:10072A003108F4003208F50080313E208031730828
:10073A002100B7007208B6007108B5007008B4004D
:10074A000030BE000030BF000030C000FA2B21008C
:10075A003E082000D90021003F082000DA002100CD
:10076A0040082000DB0096311C26803120005C08FE
:10077A002100B70020005B082100B60020005A08BB
:10078A002100B500200059082100B4003708FB00F9
:10079A003608FA003508F9003408F80080311620C6
:1007AA00803178082000C0007908C1007A08C200A8
:1007BA0021003E082000C30021003F082000C40099
:1007CA00210040082000C500943197248031200080
:1007DA0040082100BE00200041082100BF0020007F
:1007EA0042082100C000B801B901C301C30A0A3096
:1007FA0043060319372C43082000E700E801E735D0
:10080A00E80DE735E80DC630670784009830683D83
:10081A008500003FE900013FEA00023FEB00033F89
:10082A00EC006C0821003702031D2B2C20006B08FA
:10083A0021003602031D2B2C20006A0821003502F4
:10084A00031D2B2C2000690821003402031C372CBD
:10085A0001302000E70067082100C3070A30430679
:10086A00031D002C43082000E700E801E71BE8030A
:10087A002100410820006707E90021004208200002
:10088A00683DEA002100380820006907EB002100D2
:10089A00390820006A3DEC006B082100BC022000E8
:1008AA006C082100BD3B410842040319602CFF304B
:1008BA00BC07FF30BD3D03303A052000E700003099
:1008CA0021003B052000E800670868040319722C20
:1008DA00FF302100BC07FF30BD3D21003A1DA72C87
:1008EA0003303A052000E700003021003B052000D4
:1008FA00E800670868040319862C2D3094312C24EB
:10090A00803121003D08803A2000E70080306702EC
:10091A00031D922C013021003C02031CC72C3030ED
:10092A0094312C248031FF302100BC07FF30BD3DBB
:10093A00862C203094312C248031FF302100BC07D2
:10094A00FF30BD3D21003D08803A2000E70080309D
:10095A006702031DB32C013021003C0203189E2CB0
:10096A00033021003A052000E700003021003B0552
:10097A002000E800670868040319C72C2D30943159
:10098A002C248031FF302000E70067082100C307CC
:10099A00430A0319342D210043082000E700E80127
:1009AA00E735E80DE735E80DC6306707840098306B
:1009BA00683D8500003FF000013FF100023FF20070
:1009CA00033FF30021003708F7003608F600350820
:1009DA00F5003408F4009531782580317308210038
:1009EA00B3007208B2007108B1007008B00000309C
:1009FA002000A3000030A2000030A1000A30A000AD
:100A0A00210033082000A700210032082000A60098
:100A1A00210031082000A500210030082000A40090
:100A2A009431F0248031200023082100B3002000F3
:100A3A0022082100B200200021082100B100200074
:100A4A0020082100B0003008303EC42C30309431E8
:100A5A002C248031FF302100B807FF30B93D390816
:100A6A00803A2000E70080306702031D3F2D0130E5
:100A7A002100380203182B2D21004208803A200059
:100A8A00E70080306702031D4D2D09302100410225
:100A9A00031C512D0830532D210041082000E70086
:100AAA0067082100C30043082000E700E801E71BAC
:100ABA00E80367082100C102200068082100C23B40
:100ACA00430803196C2D2E3094312C2480312100D7
:100ADA0043088D31BC258031200050082100AC002C
:100AEA00200051082100AD00200052082100AE006C
:100AFA002C082000C30021002D082000C40021007A
:100B0A002E082000C50021003E082000C000210058
:100B1A003F082000C100210040082000C200973190
:100B2A004C27803120004008D9004108DA004208E9
:100B3A00DB0096311C26803120005C082100B700BA
:100B4A0020005B082100B60020005A082100B500E9
:100B5A00200059082100B400FF302000E700670890
:100B6A002100C307430A0319582E43082000E7004F
:100B7A00E801E735E80DE735E80DC6306707840078
:100B8A009830683D8500003FF000013FF100023FC8
:100B9A00F200033FF30021003708F7003608F60099
:100BAA003508F5003408F40095317825803173084A
:100BBA002100B3007208B2007108B1007008B000D9
:100BCA0000302000A3000030A2000030A1000A304B
:100BDA00A000210033082000A700210032082000CD
:100BEA00A600210031082000A500210030082000BD
:100BFA00A4009431F0248031200023082100B3009E
:100C0A00200022082100B200200021082100B100A2
:100C1A00200020082100B0003008303E94312C24F6
:100C2A008031210043082000E700E801E735E80D9C
:100C3A00E735E80DC630670784009830683D8500BF
:100C4A00003FA000013FA100023FA200033FA30012
:100C5A00210037082000A700210036082000A6003E
:100C6A00210035082000A500210034082000A40036
:100C7A009431F0248031200023082100B70020009D
:100C8A0022082100B600200021082100B50020001A
:100C9A002008AF2D303094312C248031FF302100D0
:100CAA00C107FF30C23D410842040319FA284F2EFA
:100CBA0021002F0886008701403F2000E700413FBE
:100CCA00E80067082100B400200068082100B50088
:100CDA00890D893B8909B600B70002302000E70078
:100CEA0067082100AF07B71F892E0330BA04003006
:100CFA00BB04B409B509B609B709B40A0319B50A98
:100D0A000319B60A0319B70A41084204031D972EAC
:100D1A003708360435043404031D972E0130C10701
:100D2A000030C23DC301C30A0A3043060319D42E58
:100D3A0043082000E700E801E735E80DE735E80D4C
:100D4A00C630670784009830683D8500003FE90097
:100D5A00013FEA00023FEB00033FEC006C08210070
:100D6A003702031DC82E20006B0821003602031D1E
:100D7A00C82E20006A0821003502031DC82E200053
:100D8A00690821003402031CD42E01302000E70038
:100D9A0067082100C3070A304306031D9D2E430836
:100DAA002000E700E801E71BE8036808803AE90049
:100DBA0021004208803A20006902031DE82E210022
:100DCA004108200067020318F22E21004108200082
:100DDA00E70067082100C3000E2F21004308200006
:100DEA00E700E801E71BE80321004208803A2000F7
:100DFA00E9006808803A6902031D062F6708210086
:100E0A00410203180E2F21004308C100C201C11B71
:100E1A00C20321003C083D040319252F03303A057B
:100E2A002000E700003021003B052000E8006708A9
:100E3A0068040319252FFF302100BC07FF30BD3D90
:100E4A0021003B1F412F4208803A2000E700210081
:100E5A003D08803A20006702031D362F21003C0816
:100E6A00410203183E2F21004108BC024208BD3B43
:100E7A00412F2100BC01BD0143082000E700E80121
:100E8A00E71BE8036808803AE90021003D08803A38
:100E9A0020006902031D552F21003C08200067022B
:100EAA000318662F210043082000E700E801E71B2A
:100EBA00E80367082100BC02200068082100BD3B46
:100ECA00692F2100BC01BD013A1D8B2F03303A0561
:100EDA002000E700003021003B052000E8006708F9
:100EEA00680403197C2F2D3094312C248031210081
:100EFA003C083D040319AD2F303094312C24803145
:100F0A00FF302100BC07FF30BD3D7D2F3C083D046A
:100F1A0003199C2F203094312C248031FF3021007A
:100F2A00BC07FF30BD3D3C083D04031D8F2F033035
:100F3A003A052000E700003021003B052000E800C8
:100F4A00670868040319AD2F2D3094312C248031A1
:100F5A00FF302100C107FF30C23D410A0319420A8E
:100F6A000319FA2800302000A3000030A200003044
:100F7A00A1000A30A000210042088500410884002F
:100F8A008435850D8435850DC63084079830853DB6
:100F9A00003FF000013FF100023FF200033FF3007F
:100FAA003708F7003608F6003508F5003408F4006B
:100FBA0095317825803173082000A7007208A600B1
:100FCA007108A5007008A4009431F0248031200033
:100FDA002008303EE70067082100C3004308AA2F13
:100FEA000800CA30840000308500113088310020A2
:100FFA0020008B31E22B640080010131890B01282A
:10100A000034730803190E28720871047004031D52
:10101A001F280030F0000030F1000030F200080014
:10102A000130F5007508F3070130F236F10CF00CC7
:10103A00890B1A28FE307205031938281528013041
:10104A00F5007508F3070130F00700300318013086
:10105A00F107003003180130F2070130F236F10CC3
:10106A00F00C890B3328FF30720503194528242810
:10107A000130F3020130F035F10DF20D890B4028F1
:10108A00F11B4B280230730203183D2873185328AA
:10109A00FF30F0057F30F105FF30F2050310F30C45
:1010AA007308F500F601F7011030F535F60DF70D66
:1010BA00890B5A287508F0047608F1047708F204B7
:1010CA00740803190800F217080020003308B90051
:1010DA003408BA003508BB0003103A0D3B0DBC00BA
:1010EA003C08BF003608B9003708BA003808BB0008
:1010FA0003103A0D3B0DBC003C08BE003F08031923
:10110A0092283E083F02031899283F03FF3A3E07F8
:10111A00B90019303902031C99283608B300370878
:10112A00B4003808B50008003E08031908003F0853
:10113A003E020318A8283E03FF3A3F07B9001930B8
:10114A003902031808000630B9003908BD00B51B7A
:10115A00BD17B81B3D17B417FF30B305FF30B405F0
:10116A000030B505B717FF30B605FF30B7050030B8
:10117A00B8053E083F020318E4280130B635B70D1A
:10118A00B80D890BC3280130BE023E083F06031979
:10119A00DF280130BD023D0807390319DF28C228BC
:1011AA000130B536B40CB30C890BD6280130B9001E
:1011BA003908BF073F083E0603190929D5283F0801
:1011CA003E02031809290130B335B40DB50D890B58
:1011DA00E9280130BF023E083F06031905290130FC
:1011EA00BD023D08073903190529E8280130B83638
:1011FA00B70CB60C890BFC280130B9003908BE07B8
:10120A003F083E06031DFB28BD1F1B29FF30B306FE
:10121A00FF30B406FF30B5060130B30700300318BB
:10122A000130B407003003180130B5073D1F2D29DE
:10123A00FF30B606FF30B706FF30B8060130B607F2
:10124A00003003180130B707003003180130B8071F
:10125A00BD013308B6073408B73D3508B83DB81F95
:10126A004829FF30B606FF30B706FF30B80601300E
:10127A00B607003003180130B707003003180130F1
:10128A00B807BD01BD0A3608F0003708F100380872
:10129A00F2003F08B9003908F3003D08BA003A08DD
:1012AA00F4008831062070082000B3007108B400E9
:1012BA007208B5000800703086008701403FF600CA
:1012CA00413FF700423FF800433FF9000310780D11
:1012DA00790DFA007A082000A5002508031D7E2949
:1012EA000030F3000030F2000030F1000030F0006E
:1012FA000800733086008701403FF600413FF7003F
:10130A00423FF800433FF9000310780D790DFA00C7
:10131A007A08A4002408031D9B290030F30000303A
:10132A00F2000030F1000030F00008007030860052
:10133A00870100308104413100308104413180301D
:10134A008104413100308104703086008701FF300A
:10135A0081054131FF3081054131FF30810541313D
:10136A0000308105733086008701003081044131E5
:10137A0000308104413180308104413100308104E0
:10138A00733086008701FF3081054131FF308105C6
:10139A004131FF3081054131003081050030A30021
:1013AA000030A2000030A1000030A0007F30A5026A
:1013BA00A0302407F6007608A5022030F600760849
:1013CA00A4000130A035A10DA20DA30D890BE729B8
:1013DA00733086008701403FF600413FF700423FE5
:1013EA00F800433FF900703086008701403FFA0059
:1013FA00413FFB00423FFC00433FFD0079087D026C
:10140A00031D112A78087C02031D112A77087B0222
:10141A00031D112A76087A02031C2E2A73308600CD
:10142A008701403FF600413FF700423FF800433F43
:10143A00F900703086008701760881024131770809
:10144A00813B41317808813B41317908813B7D31CB
:10145A00201470308600870181354131810D413178
:10146A00810D4131810D7D310130A402031DE62930
:10147A00A51F5B2A2508803A9F3E03184D2A003093
:10148A00F3000030F2000030F1000030F0000800F4
:10149A000130A336A20CA10CA00C890B4E2A0130F4
:1014AA00F6007608A5070319742A4D2A203025026A
:1014BA00031C712A0030F3000030F2000030F10002
:1014CA000030F00008000130A035A10DA20DA30DD7
:1014DA00890B692A0130A5022508031D682A2308F9
:1014EA00F3002208F2002108F1002008F0000800A9
:1014FA002000DD006E305D02031C3D2B0A30F70030
:10150A000030F8005D08D300D4015308F2005408F3
:10151A00F3006430F0000030F100953133258A3150
:10152A007108FA007008F9009531CA258A317708DE
:10153A00093E2000A4000030783DA5000330A60033
:10154A000030A70094315E248A31200025088500E6
:10155A0024088400003084079830853D003FC0008D
:10156A00013FC100023FC2006430F7000030F800BA
:10157A005D08D500D6015508F9005608FA009531DC
:10158A00CA258A317708123E2000A4000030783D2F
:10159A00A5000330A6000030A70094315E248A31EA
:1015AA00200025088500240884000030840798302C
:1015BA00853D003FC300013FC400023FC50097318B
:1015CA004C278A3120004008DA004108DB00420833
:1015DA00DC005D08D300D4015308F2005408F3007C
:1015EA000A30F0000030F100953133258A31710854
:1015FA002000A5007008A4000330A6000030A70050
:10160A0094315E248A31200025088500240884004C
:10161A00003084079830853D003FC000013FC1007B
:10162A00023FC2005A08C3005B08C4005C08C50038
:10163A0097314C278A3120004008D7004108D8004A
:10164A004208D9000030C0000030C1003F30C2005B
:10165A005708C3005808C4005908C50097314C27D9
:10166A0020004008D0004108D1004208D2000800FA
:10167A000B305D02031CB52B5D08D300D40153085F
:10168A00F2005408F3000A30F0000030F1009531FE
:10169A0033258A3171082000A5007008A4000330A0
:1016AA00A6000030A70094315E248A312000250864
:1016BA00850024088400003084079830853D003F67
:1016CA00C000013FC100023FC2000A30F7000030EB
:1016DA00F8005D08D500D6015508F9005608FA0049
:1016EA009531CA258A317708093E2000A4000030C6
:1016FA00783DA5000330A6000030A70094315E248F
:10170A008A312000250885002408840000308407D7
:10171A009830853D003FC300013FC400023FC50029
:10172A0097314C278A3120004008DA004108DB0053
:10173A004208DC000030C0000030C1003F30C20067
:10174A005A08C3005B08C4005C08C50097314C27DF
:10175A0020004008D0004108D1004208D200080009
:10176A000030C0000030C1003F30C2005D08D30025
:10177A00D4015308A4005408A5000330A600003081
:10178A00A70094315E248A312000250885002408A8
:10179A008400003084079830853D003FC300013F34
:1017AA00C400023FC50097314C2720004008D000F2
:1017BA004108D1004208D200080094317A248B31C2
:1017CA00803105208B31A23022009700C0302100E1
:1017DA009E002D3021009D000D302000ED00FB30D1
:1017EA00890BF52BED0BF52B003221009D149D186A
:1017FA00FC2B1C08DA001B08D9007D309D000D3037
:10180A002000ED00FB30890B082CED0B082C003270
:10181A0021009D149D180F2C1C08D6001B08D5000A
:10182A0075309D000D302000ED00FB30890B1B2C1C
:10183A00ED0B1B2C003221009D149D18222C1C0834
:10184A00D8001B08D7005808F9005708F800943147
:10185A004B248B3178082000A3007908A4007A0869
:10186A00A500C030A0007F30A1004430A20096310C
:10187A00A3268B3120002008B0002108B1002208DD
:10188A00B200943134248B3120003008B60031087C
:10189A00B7003208B8000030B3008030B4003F30DF
:1018AA00B50088316A208B3120003308C300340820
:1018BA00C4003508C5007130C000BD30C1003F30DA
:1018CA00C20097314C278B31200040082100C40008
:1018DA00200041082100C500200042082100C6005E
:1018EA0004302000A000AD30A1003A30A200B4308C
:1018FA00B3002830B4003F30B5002100440820006E
:10190A00B000210045082000B1002100460820004F
:10191A00B200943134248B3120003008B6003108EB
:10192A00B7003208B80088316A208B3120003308AA
:10193A00A3003408A4003508A5009631A3268B31EC
:10194A00200020082100C700200021082100C8002B
:10195A00200022082100C90000302000B3002030F6
:10196A00B400C230B500210047082000B6002100AB
:10197A0048082000B700210049082000B800883133
:10198A006A208B31200033082100D000200034085F
:10199A002100D100200035082100D2008230A000A9
:1019AA009830A1005808A3005708A2005A08A500B9
:1019BA005908A4005608A7005508A6008031F4204B
:1019CA008B3106302000EE001330ED00AD30890B6C
:1019DA00EC2CED0BEC2CEE0BEC2C00322100580811
:1019EA005A02031DFA2C570859020318002D200029
:1019FA008C120E17032D20008C160E13193021009D
:101A0A009D000D302000ED00FB30890B0A2DED0BF7
:101A1A000A2D003221009D149D18112D1C08D80092
:101A2A001B08D70000302000A0008030A1004430FD
:101A3A00A2000030C000A030C1004030C200210026
:101A4A005808F9005708F80094314B248B3178086C
:101A5A002000C3007908C4007A08C50097314C27D2
:101A6A008B3120004008A3004108A4004208A500C9
:101A7A009631A3268B31200020082100CA002000BD
:101A8A0021082100CB00200022082100CC00D730F9
:101A9A002000A0002330A1003C30A2000030B30097
:101AAA000030B400BF30B50021004A082000B6005B
:101ABA0021004B082000B70021004C082000B80084
:101ACA0088316A208B3120003308A3003408A4002F
:101ADA003508A5009631A3268B3120002008210065
:101AEA00CD00200021082100CE002000220821007C
:101AFA00CF001D309D000D302000ED00FB30890B1A
:101B0A00842DED0B842D003221009D149D188B2D00
:101B1A001C08D4001B08D3002730A0009830A1006D
:101B2A004D08A2004E08A3004F08A4005A08A600B8
:101B3A005908A5004A08A7004B08A8004C08A900A4
:101B4A005408AB005308AA008031F4208B310630C8
:101B5A002000EE001330ED00AD30890BB22DED0BF5
:101B6A00B22DEE0BB22D003220000C15EE2B200008
:101B7A00D800D81FE12ED809D80A5808803A123E50
:101B8A00031C652E0A30F7000030F8005808F200EE
:101B9A00F301F21BF3036430F0000030F1009531D9
:101BAA0033258D317108FA007008F9009531CA257C
:101BBA008D317708093E2000A4000030783DA50049
:101BCA000330A6000030A70094315E248D31200036
:101BDA002508850024088400003084079830853D54
:101BEA00003FC000013FC100023FC2006430F7005D
:101BFA000030F8005808F900FA01F91BFA03953188
:101C0A00CA258D317708123E2000A4000030783DA5
:101C1A00A5000330A6000030A70094315E248D3160
:101C2A0020002508850024088400003084079830A5
:101C3A00853D003FC300013FC400023FC500973104
:101C4A004C278D3120004008D5004108D6004208B3
:101C5A00D7005808F200F301F21BF3030A30F00030
:101C6A000030F100953133258D3171082000A5002F
:101C7A007008A4000330A6000030A70094315E2447
:101C8A008D3120002508850024088400003084074F
:101C9A009830853D003FC000013FC100023FC200AD
:101CAA005508C3005608C4005708C50097314C2789
:101CBA0020004008D0004108D1004208D2000800A4
:101CCA005808803A753E031CC42E5808F200F301E6
:101CDA00F21BF3030A30F0000030F100953133258E
:101CEA008D3171082000A5007008A4000330A600F9
:101CFA000030A70094315E248D312000250885002C
:101D0A0024088400003084079830853D003FC000D5
:101D1A00013FC100023FC2000A30F7000030F8005C
:101D2A005808F900FA01F91BFA039531CA258D31D1
:101D3A007708093E2000A4000030783DA500033052
:101D4A00A6000030A70094315E248D3120002508BA
:101D5A00850024088400003084079830853D003FC0
:101D6A00C300013FC400023FC50097314C27200041
:101D7A004008D0004108D1004208D20008005808A3
:101D8A00D300D4015308A4005408A5000330A600C8
:101D9A000030A70094315E2420002508850024081D
:101DAA008400003084079830853D003FD000013F11
:101DBA00D100023FD20008005808803A123E031CA4
:101DCA00842F0A30F7000030F8005808F200F301B7
:101DDA00F21BF3036430F0000030F1009531332533
:101DEA008D317108FA007008F9009531CA258D31D4
:101DFA007708093E2000A4000030783DA500033092
:101E0A00A6000030A70094315E248D3120002508F9
:101E1A00850024088400EE3084079830853D003F11
:101E2A00C000013FC100023FC2006430F700003029
:101E3A00F8005808F900FA01F91BFA039531CA2586
:101E4A008D317708123E2000A4000030783DA500AD
:101E5A000330A6000030A70094315E248D312000A3
:101E6A002508850024088400EE3084079830853DD3
:101E7A00003FC300013FC400023FC50097314C2711
:101E8A008D3120004008D5004108D6004208D7000D
:101E9A005808F200F301F21BF3030A30F000003095
:101EAA00F100953133258D3171082000A5007008A5
:101EBA00A4000330A6000030A70094315E248D31BF
:101ECA0020002508850024088400EE308407983015
:101EDA00853D003FC000013FC100023FC2005508D6
:101EEA00C3005608C4005708C50097314C27200084
:101EFA004008D0004108D1004208D2000800580822
:101F0A00803A753E031CE32F5808F200F301F21BD6
:101F1A00F3030A30F0000030F100953133258D319A
:101F2A0071082000A5007008A4000330A600003044
:101F3A00A70094315E248D312000250885002408ED
:101F4A008400EE3084079830853D003FC000013F91
:101F5A00C100023FC2000A30F7000030F8005808FA
:101F6A00F900FA01F91BFA039531CA258D31770870
:101F7A00093E2000A4000030783DA5000330A600E9
:101F8A000030A70094315E248D3120002508850099
:101F9A0024088400EE3084079830853D003FC30052
:101FAA00013FC400023FC50097314C27200040087A
:101FBA00D0004108D1004208D20008005808D300D6
:101FCA00D4015308A4005408A5000330A600003029
:101FDA00A70094315E242000250885002408840087
:101FEA00EE3084079830853D003FD000013FD10094
:061FFA00023FD2000800C6
:10285800F0002000111E2D2C700823009A0008009B
:102868002000320831043004031908008030B20611
:102878000800F100F0013A3071020318492C303099
:102888007102031C492CF001F00A700C080078084A
:10289800F0007908F100F2018E30FB007B08F300AC
:1028A800F401883106207008F8007108F9007208F0
:1028B800FA000800FC01FD012000241C672C2608F2
:1028C800FC072708FD3D0130A635A70D890B682CAC
:1028D8000130A536A40C890B6D2C24082504031D92
:1028E800602C7D08A5007C08A40008006A3021003F
:1028F800990022001D159D17103021008C00103002
:1029080023008C000C3021008E000C3023008E0038
:10291800F03021008D00F03023008D008B01220063
:1029280097161712080020004208410440040319B2
:102938009F2C8030C2064308B3004408B400450801
:10294800B5004008B6004108B7004208B800883111
:102958006A2020003308C0003408C1003508C200CE
:102968000800F21FCB2C7009F6007109F7007209F4
:10297800F800F60A0319F70A0319F80A003076076F
:10298800F0000030773DF1008030783DF200F51F0F
:10299800E12C7309F6007409F7007509F800F60AC6
:1029A8000319F70A0319F80A00307607F300003014
:1029B800773DF4008030783DF5008030F2068030B5
:1029C800F50675087202031D080074087102031DDC
:1029D800080073087002080020002308220421045C
:1029E800200403192A2DA901A90AA31B072D0130C8
:1029F800A035A10DA20DA30D890BFC2C0130A80058
:102A08002808A907F92C23082702031D152D2208D9
:102A18002602031D152D21082502031D152D20084A
:102A28002402031C1F2D2008A4022108A53B22080C
:102A3800A63B2308A73B0130A336A20CA10CA00C8F
:102A4800890B202D0130A902031D072D2708A3009B
:102A58002608A2002508A1002408A0000800F60105
:102A6800F31F3D2DF209F309F20A0319F30AF601DF
:102A7800F60AF11F442DF009F109F00A0319F10AC9
:102A88007008710403196B2DF501F50AF11B562D19
:102A98000130F035F10D890B4D2D0130F40074082B
:102AA800F5074A2D71087302031D5C2D7008720228
:102AB800031C622D7008F2027108F33B0130F136F5
:102AC800F00C890B632D0130F502031D562D760895
:102AD8000319732DF209F309F20A0319F30A7308AB
:102AE800F1007208F00008000030FC000030FB0024
:102AF8000030FA000030F9007308720471047004A1
:102B08000319C12DFD01FD0AF31B962D0130F03587
:102B1800F10DF20DF30D890B8B2D0130F8007808BB
:102B2800FD07882D0130F935FA0DFB0DFC0D890BD9
:102B3800972D73087702031DAB2D72087602031DCB
:102B4800AB2D71087502031DAB2D70087402031CB0
:102B5800B62D7008F4027108F53B7208F63B73084D
:102B6800F73B79140130F336F20CF10CF00C890BB9
:102B7800B72D0130FD02031D962D7C08F3007B085C
:102B8800F2007A08F1007908F00008002000A1019D
:102B9800F81FD52DF709F809F70A0319F80AA10152
:102BA800A10AFA1FE02DF909FA09F90A0319FA0A24
:102BB8000130FB007B08A106A201A3017708780475
:102BC80003190F2EA001A00AF81BF42D0130F735C8
:102BD800F80D890BEB2D0130FB007B08A007E82DD1
:102BE8000130A235A30D890BF52D78087A02031D53
:102BF800FF2D77087902031C062E7708F90278085A
:102C0800FA3B22140130F836F70C890B072E0130F5
:102C1800A002031DF42D21080319172EA209A309E8
:102C2800A20A0319A30A2308F8002208F7000800DB
:102C380020005908DD005A08DE005B08DF00031099
:102C48005E0D5F0DE0006008E6006608031D352E86
:102C58000030DC000030DB000030DA000030D90042
:102C680008005908DD005A08DE005B08DF0017304D
:102C7800DF36DE0CDD0C890B3C2E5D08E0006008B9
:102C8800E100DA17FF30D905FF30DA050030DB053F
:102C98005908E2005A08E3005B08E400E5018E30B9
:102CA800E602E61F732E6608803A8F3E0318652EEB
:102CB8000030DC000030DB000030DA000030D900E2
:102CC80008000130E536E40CE30CE20C890B662EB3
:102CD8000130DD005D08E60703198C2E652E1830DB
:102CE8006602031C892E0030DC000030DB00003057
:102CF800DA000030D90008000130E235E30DE40DB8
:102D0800E50D890B812E0130E6026608031D802E31
:102D1800610803199A2EE209E309E409E509E20AC0
:102D28000319E30A0319E40A0319E50A6508DC0034
:102D38006408DB006308DA006208D9000800200094
:102D48002308A6002408A7002508A8000310270DBB
:102D5800280DA9002908AE002E08031DBA2E003040
:102D6800A0000030A1000030A20008002008A60042
:102D78002108A7002208A8000310270D280DA90084
:102D88002908AF002F08031DD02E0030A000003006
:102D9800A1000030A20008000030AB000030AC00F9
:102DA8000030AD0089302F07A6002608AE022308A0
:102DB800A6002408A7002508A8001030A836A70CEC
:102DC800A60C890BE22E2608A9002908AF002008C6
:102DD800A6002108A7002208A8001030A836A70CD2
:102DE800A60C890BF22E2608A9002908AF06803008
:102DF800A6002608AF05A417FF30A305FF30A405D9
:102E08000030A505A117FF30A005FF30A10500304F
:102E1800A2051830A6002608AA000130AB35AC0D73
:102E2800AD0D890B122F22082502031D212F210821
:102E38002402031D212F20082302031C2A2F200807
:102E4800A3022108A43B2208A53B2B140130A3357B
:102E5800A40DA50D890B2B2F0130AA02031D112FDC
:102E68002B08F0002C08F1002D08F2002E08A6000F
:102E78002608F3002F08A7002708F4008831062049
:102E880070082000A0007108A1007208A2000800C4
:102E980020004008C6004108C7004208C8000310C7
:102EA800470D480DC9004908CA004A08031D632F89
:102EB8000030C0000030C1000030C20008004308E4
:102EC800C6004408C7004508C8000310470D480D50
:102ED800C9004908CF004F08031D792F0030C000F2
:102EE8000030C1000030C20008004F087B3EC60019
:102EF8004608CA074008C6004108C7004208C8007B
:102F08001030C836C70CC60C890B852F4608C90077
:102F18004908CF004308C6004408C7004508C80050
:102F28001030C836C70CC60C890B952F4608C90047
:102F38004908CF068030C6004608CF05C117C41718
:102F4800FF30C305FF30C4050030C5050030CB0095
:102F58000030CC000030CD000730C6004608CE0057
:102F6800401CBC2F4308CB074408CC3D4508CD3D49
:102F78000130C236C10CC00C890BBD2F0130C335DE
:102F8800C40DC50D890BC32F0130CE02031DB42F0C
:102F98000930C6004608CE00401CD82F4308CB078E
:102FA8004408CC3D4508CD3D0130C236C10CC00CAB
:102FB800890BD92F0130CD36CC0CCB0C890BDF2FE8
:102FC8000130CE02031DD02F4B08F0004C08F10051
:102FD8004D08F2004A08C6004608F3004F08C7002B
:102FE8004708F4008831062070082000C0007108E6
:102FF800C1007208C2000800003480343F34CD3468
:10300800CC343D34D73423343C34123483343A340A
:10301800B734D1343834C634273437343834863466
:103028003534C034D6343334CC342B343234703461
:1030380089343034E734DB342E34E5343C341E3400
:103048004234A2340D3445347834743465347234DF
:103058006E3461346C342034523461347734203423
:10306800543465346D3470342034763461346C34BF
:10307800753465342034693473342034253430345D
:103088002E343234663420345234413457342034A8
:103098007C34203450346F347434203476346134C2
:1030A8006C347534653420346934733420342534F1
:1030B800643420347C34203456346F346C347434A3
:1030C80061346734653420346934733420342534EA
:1030D800643420347C342034503468346F3474348D
:1030E8006F342034563461346C347534653420348C
:1030F8002534643420340A340D34003452346134B5
:1031080077342034543465346D3470342034763454
:1031180061346C3475346534203469347334203444
:1031280025346434203452344134573420347C34C8
:10313800203450346F3474342034763461346C3431
:103148007534653420346934733420342534643458
:1031580020347C342034463469347834653464341B
:10316800203456346F346C347434613467346534C5
:1031780020346934733420342534643420340A34D8
:103188000D34003401340034003400340A3400347F
:10319800003400346434003400340034E834033438
:1031A800003400341034273400340034A03486341A
:1031B80001340034403442340F34003480349634BF
:1031C800983400340034E134F53405340034CA341A
:1031D8009A343B34003480343F3400342034413452
:1031E8000034C834423400347A34443440341C3413
:1031F80046345034C334473424347434493497340F
:1032080018344B34BC34BE344C346B346E344E34C6
:103218000334153450347934AD346034F3344934DC
:023228007134FF
:020000040001F9
:04000E00E4C9FFFE44
:00000001FF
