:08000000803102288731FD2F39
:100EB000F601F31F622FF209F309F20A0319F30A8C
:100EC000F601F60AF11F692FF009F109F00A03197A
:100ED000F10A700871040319902FF501F50AF11B4E
:100EE0007B2F0130F035F10D890B722F0130F400AA
:100EF0007408F5076F2F71087302031D812F7008A6
:100F00007202031C872F7008F2027108F33B013054
:100F1000F136F00C890B882F0130F502031D7B2F71
:100F200076080319982FF209F309F20A0319F30A54
:100F30007308F1007208F00008006A30210099007F
:100F40008C0120008C0121008D0120008D012100E9
:100F50008E0120008E010C110E13F901FA010130EF
:100F6000F9070030FA3D0330F0000030F1007A0854
:100F7000F3007908F200873158278731700871042F
:100F8000031DE02F20008C128D178E150630F800FF
:100F90001330F700AE30890BCB2FF70BCB2FF80BAC
:100FA000CB2F20008C168D138E110630F8001330D5
:100FB000F700AE30890BDA2FF70BDA2FF80BDA2FA8
:100FC00020008D178E150330F8008A30F700563058
:100FD000890BE82FF70BE82FF80BE82F20008D1373
:100FE0008E110330F8008A30F7005630890BF62F47
:100FF000F70BF62FF80BF62FAF2F200087319D2F20
:020000040001F9
:04000E00E4C9FFFE44
:00000001FF
